{
  "contractName": "Voting",
  "abi": [
    {
      "inputs": [
        {
          "internalType": "string[]",
          "name": "candidateNames",
          "type": "string[]"
        }
      ],
      "stateMutability": "nonpayable",
      "type": "constructor"
    },
    {
      "inputs": [
        {
          "internalType": "uint256",
          "name": "",
          "type": "uint256"
        }
      ],
      "name": "candidates",
      "outputs": [
        {
          "internalType": "string",
          "name": "name",
          "type": "string"
        },
        {
          "internalType": "uint256",
          "name": "voteCount",
          "type": "uint256"
        }
      ],
      "stateMutability": "view",
      "type": "function",
      "constant": true
    },
    {
      "inputs": [],
      "name": "candidatesCount",
      "outputs": [
        {
          "internalType": "uint256",
          "name": "",
          "type": "uint256"
        }
      ],
      "stateMutability": "view",
      "type": "function",
      "constant": true
    },
    {
      "inputs": [
        {
          "internalType": "address",
          "name": "",
          "type": "address"
        }
      ],
      "name": "voters",
      "outputs": [
        {
          "internalType": "bool",
          "name": "",
          "type": "bool"
        }
      ],
      "stateMutability": "view",
      "type": "function",
      "constant": true
    },
    {
      "inputs": [],
      "name": "votingEnded",
      "outputs": [
        {
          "internalType": "bool",
          "name": "",
          "type": "bool"
        }
      ],
      "stateMutability": "view",
      "type": "function",
      "constant": true
    },
    {
      "inputs": [
        {
          "internalType": "uint256",
          "name": "candidateIndex",
          "type": "uint256"
        }
      ],
      "name": "vote",
      "outputs": [],
      "stateMutability": "nonpayable",
      "type": "function"
    },
    {
      "inputs": [],
      "name": "endVoting",
      "outputs": [],
      "stateMutability": "nonpayable",
      "type": "function"
    }
  ],
  "bytecode": "0x60806040523480156200001157600080fd5b5060405162000d4238038062000d428339818101604052810190620000379190620002f6565b6000600360006101000a81548160ff02191690831515021790555060005b8151811015620000c757620000b18282815181106200009d577f4e487b7100000000000000000000000000000000000000000000000000000000600052603260045260246000fd5b6020026020010151620000cf60201b60201c565b8080620000be9062000447565b91505062000055565b505062000522565b60405180604001604052808281526020016000815250600080600254815260200190815260200160002060008201518160000190805190602001906200011792919062000142565b5060208201518160010155905050600260008154809291906200013a9062000447565b919050555050565b828054620001509062000411565b90600052602060002090601f016020900481019282620001745760008555620001c0565b82601f106200018f57805160ff1916838001178555620001c0565b82800160010185558215620001c0579182015b82811115620001bf578251825591602001919060010190620001a2565b5b509050620001cf9190620001d3565b5090565b5b80821115620001ee576000816000905550600101620001d4565b5090565b60006200020962000203846200036f565b6200033b565b9050808382526020820190508260005b858110156200024d5781518501620002328882620002c9565b84526020840193506020830192505060018101905062000219565b5050509392505050565b60006200026e62000268846200039e565b6200033b565b9050828152602081018484840111156200028757600080fd5b62000294848285620003db565b509392505050565b600082601f830112620002ae57600080fd5b8151620002c0848260208601620001f2565b91505092915050565b600082601f830112620002db57600080fd5b8151620002ed84826020860162000257565b91505092915050565b6000602082840312156200030957600080fd5b600082015167ffffffffffffffff8111156200032457600080fd5b62000332848285016200029c565b91505092915050565b6000604051905081810181811067ffffffffffffffff82111715620003655762000364620004f3565b5b8060405250919050565b600067ffffffffffffffff8211156200038d576200038c620004f3565b5b602082029050602081019050919050565b600067ffffffffffffffff821115620003bc57620003bb620004f3565b5b601f19601f8301169050602081019050919050565b6000819050919050565b60005b83811015620003fb578082015181840152602081019050620003de565b838111156200040b576000848401525b50505050565b600060028204905060018216806200042a57607f821691505b60208210811415620004415762000440620004c4565b5b50919050565b60006200045482620003d1565b91507fffffffffffffffffffffffffffffffffffffffffffffffffffffffffffffffff8214156200048a576200048962000495565b5b600182019050919050565b7f4e487b7100000000000000000000000000000000000000000000000000000000600052601160045260246000fd5b7f4e487b7100000000000000000000000000000000000000000000000000000000600052602260045260246000fd5b7f4e487b7100000000000000000000000000000000000000000000000000000000600052604160045260246000fd5b61081080620005326000396000f3fe608060405234801561001057600080fd5b50600436106100625760003560e01c80630121b93f146100675780632d35a8a2146100835780633477ee2e146100a15780639d5a0529146100d2578063a3ec138d146100f0578063c3403ddf14610120575b600080fd5b610081600480360381019061007c9190610425565b61012a565b005b61008b6102d0565b6040516100989190610610565b60405180910390f35b6100bb60048036038101906100b69190610425565b6102d6565b6040516100c9929190610580565b60405180910390f35b6100da610382565b6040516100e79190610565565b60405180910390f35b61010a600480360381019061010591906103fc565b610395565b6040516101179190610565565b60405180910390f35b6101286103b5565b005b600360009054906101000a900460ff161561017a576040517f08c379a0000000000000000000000000000000000000000000000000000000008152600401610171906105b0565b60405180910390fd5b600160003373ffffffffffffffffffffffffffffffffffffffff1673ffffffffffffffffffffffffffffffffffffffff16815260200190815260200160002060009054906101000a900460ff1615610207576040517f08c379a00000000000000000000000000000000000000000000000000000000081526004016101fe906105f0565b60405180910390fd5b600254811061024b576040517f08c379a0000000000000000000000000000000000000000000000000000000008152600401610242906105d0565b60405180910390fd5b60018060003373ffffffffffffffffffffffffffffffffffffffff1673ffffffffffffffffffffffffffffffffffffffff16815260200190815260200160002060006101000a81548160ff02191690831515021790555060008082815260200190815260200160002060010160008154809291906102c8906106f4565b919050555050565b60025481565b60006020528060005260406000206000915090508060000180546102f9906106c2565b80601f0160208091040260200160405190810160405280929190818152602001828054610325906106c2565b80156103725780601f1061034757610100808354040283529160200191610372565b820191906000526020600020905b81548152906001019060200180831161035557829003601f168201915b5050505050908060010154905082565b600360009054906101000a900460ff1681565b60016020528060005260406000206000915054906101000a900460ff1681565b6001600360006101000a81548160ff021916908315150217905550565b6000813590506103e1816107ac565b92915050565b6000813590506103f6816107c3565b92915050565b60006020828403121561040e57600080fd5b600061041c848285016103d2565b91505092915050565b60006020828403121561043757600080fd5b6000610445848285016103e7565b91505092915050565b61045781610659565b82525050565b60006104688261062b565b6104728185610636565b935061048281856020860161068f565b61048b8161079b565b840191505092915050565b60006104a3601083610636565b91507f566f74696e672068617320656e646564000000000000000000000000000000006000830152602082019050919050565b60006104e3601783610636565b91507f496e76616c69642063616e64696461746520696e6465780000000000000000006000830152602082019050919050565b6000610523601683610636565b91507f596f75206861766520616c726561647920766f746564000000000000000000006000830152602082019050919050565b61055f81610685565b82525050565b600060208201905061057a600083018461044e565b92915050565b6000604082019050818103600083015261059a818561045d565b90506105a96020830184610556565b9392505050565b600060208201905081810360008301526105c981610496565b9050919050565b600060208201905081810360008301526105e9816104d6565b9050919050565b6000602082019050818103600083015261060981610516565b9050919050565b60006020820190506106256000830184610556565b92915050565b600081519050919050565b600082825260208201905092915050565b600061065282610665565b9050919050565b60008115159050919050565b600073ffffffffffffffffffffffffffffffffffffffff82169050919050565b6000819050919050565b60005b838110156106ad578082015181840152602081019050610692565b838111156106bc576000848401525b50505050565b600060028204905060018216806106da57607f821691505b602082108114156106ee576106ed61076c565b5b50919050565b60006106ff82610685565b91507fffffffffffffffffffffffffffffffffffffffffffffffffffffffffffffffff8214156107325761073161073d565b5b600182019050919050565b7f4e487b7100000000000000000000000000000000000000000000000000000000600052601160045260246000fd5b7f4e487b7100000000000000000000000000000000000000000000000000000000600052602260045260246000fd5b6000601f19601f8301169050919050565b6107b581610647565b81146107c057600080fd5b50565b6107cc81610685565b81146107d757600080fd5b5056fea2646970667358221220913cf405c3819c66d3a2273d109096931a400bf3ed380c68a52f076e43ffb7b564736f6c63430008000033",
  "immutableReferences": {},
  "source": "// SPDX-License-Identifier: MIT\npragma solidity ^0.8.0;\n\ncontract Voting {\n    struct Candidate {\n        string name;\n        uint voteCount;\n    }\n\n    mapping(uint => Candidate) public candidates;\n    mapping(address => bool) public voters;\n    uint public candidatesCount;\n    bool public votingEnded;\n\n    constructor(string[] memory candidateNames) {\n        votingEnded = false;\n        for (uint i = 0; i < candidateNames.length; i++) {\n            addCandidate(candidateNames[i]);\n        }\n    }\n\n    function addCandidate(string memory name) private {\n        candidates[candidatesCount] = Candidate(name, 0);\n        candidatesCount++;\n    }\n\n    function vote(uint candidateIndex) public {\n        require(!votingEnded, \"Voting has ended\");\n        require(!voters[msg.sender], \"You have already voted\");\n        require(candidateIndex < candidatesCount, \"Invalid candidate index\");\n\n        voters[msg.sender] = true;\n        candidates[candidateIndex].voteCount++;\n    }\n\n    function endVoting() public {\n        votingEnded = true;\n    }\n}\n",
  "sourcePath": "E:\\9808 BCT\\VotingApp\\contracts\\Voting.sol",
  "compiler": {
    "name": "solc",
    "version": "0.8.0+commit.c7dfd78e.Emscripten.clang"
  },
  "schemaVersion": "3.4.16",
  "updatedAt": "2024-11-01T13:40:26.887Z",
  "networkType": "ethereum",
  "devdoc": {
    "kind": "dev",
    "methods": {},
    "version": 1
  },
  "userdoc": {
    "kind": "user",
    "methods": {},
    "version": 1
  }
}